:020000040800F2
:10000000B80C002089010008790900085D06000885
:100010000D07000881040008BB190008000000005B
:100020000000000000000000000000007111000846
:10003000E5040008000000005B1000085D130008E4
:10004000A3010008A3010008A3010008A301000800
:10005000A3010008A3010008A3010008A3010008F0
:10006000A3010008A3010008A3010008A3010008E0
:10007000A3010008A3010008A3010008A3010008D0
:10008000A3010008A3010008A3010008A3010008C0
:10009000A3010008A3010008A3010008A3010008B0
:1000A000A3010008A3010008A3010008A3010008A0
:1000B000A3010008A3010008A3010008A301000890
:1000C000A3010008A3010008A3010008A301000880
:1000D000A301000809170008A30100084917000838
:1000E000A3010008A3010008A301000800F002F822
:1000F00000F03AF80AA090E8000C82448344AAF188
:100100000107DA4501D100F02FF8AFF2090EBAE885
:100110000F0013F0010F18BFFB1A43F0010318473B
:10012000882A0000A82A0000103A24BF78C878C1A5
:10013000FAD8520724BF30C830C144BF04680C60ED
:10014000704700000023002400250026103A28BF35
:1001500078C1FBD8520728BF30C148BF0B60704739
:100160001FB51FBD10B510BD00F05CF91146FFF7BB
:10017000F7FF01F05DFC00F07AF903B4FFF7F2FF3E
:1001800003BC01F01CFC00000948804709480047F7
:10019000FEE7FEE7FEE7FEE7FEE7FEE7FEE7FEE737
:1001A000FEE7FEE704480549054A064B7047000094
:1001B00061130008ED000008B8060020B80C00200C
:1001C000B8080020B8080020704740EA0103024642
:1001D00030B59B0710D14FF0013400E008C208C9C8
:1001E0001D1B9D4315EAC41FF8D013F0FF0102F850
:1001F000011B0DD01B0AF8E711F8013B002B02F898
:10020000013B05D011F8013B002B02F8013BF3D173
:1002100030BD032A40F2308010F0030C00F015804E
:1002200011F8013BBCF1020F624498BF11F801CBF9
:1002300000F8013B38BF11F8013BA2F1040298BF5E
:1002400000F801CB38BF00F8013B11F0030300F0C8
:100250008B80083AC0F0088051F8043B083A51F806
:1002600004CBA0E80810F5E7121D5CBF51F8043B71
:1002700040F8043BAFF30080D20724BF11F8013BE4
:1002800011F801CB48BF11F8012B24BF00F8013B46
:1002900000F801CB48BF00F8012B70474FF0000277
:1002A0000429C0F0128010F0030C00F09180CCF112
:1002B000040CBCF1020F18BF00F8012BA8BF20F8F6
:1002C000022BA1EB0C0100F083B85FEAC17C24BFD4
:1002D00000F8012B00F8012B48BF00F8012B7047F4
:1002E0004FF0013C50F8042B51F8043B9A4221D1C5
:1002F000A2EB0C03934313EACC1317D150F8042B51
:1003000051F8043B9A4215D1A2EB0C03934313EA34
:10031000CC130BD150F8042B51F8043B9A4209D16D
:10032000A2EB0C03934313EACC13DBD04FF0000095
:10033000704700BFD01A01BAB1FA81F101F018017B
:1003400022FA01F0CB40C1F12001DBB2C0B2C01AE9
:100350002CFA01F3D11A914311EAC311E6D1704787
:10036000704770477047704710B5203AC0F00B8057
:10037000B1E81850203AA0E81850B1E81850A0E8A9
:100380001850BFF4F5AF5FEA027C24BFB1E8185003
:10039000A0E8185044BF18C918C0BDE810405FEA73
:1003A000827C24BF51F8043B40F8043B08BF7047EF
:1003B000D20728BF31F8023B48BF11F8012B28BFF4
:1003C00020F8023B48BF00F8012B70474FF00002B5
:1003D00000B5134694469646203922BFA0E80C503B
:1003E000A0E80C50B1F12001BFF4F7AF090728BF16
:1003F000A0E80C5048BF0CC05DF804EB890028BF92
:1004000040F8042B08BF704748BF20F8022B11F0BA
:10041000804F18BF00F8012B70470000004870475C
:10042000580600207546FFF7F9FFAE4605006946FD
:10043000534620F00700854618B020B5FFF7B2FEFE
:10044000BDE820404FF000064FF000074FF00008D5
:100450004FF0000B21F00701AC46ACE8C009ACE856
:10046000C009ACE8C009ACE8C0098D46704710B5BA
:100470000446AFF300802046BDE81040FFF77DBE84
:1004800000BFFEE708B50121082000F0F7FD1020AD
:100490008DF803000002ADF8000003208DF8020083
:1004A0006946044800F01FF84FF48051014800F0FD
:1004B000B0F808BD000C014010B54FF48051084859
:1004C00000F09CF828B94FF48051054800F0A1F8DD
:1004D00004E04FF48051024800F099F810BD00008C
:1004E000000C014070472DE9F0410246002500262E
:1004F000002000230024002791F803C00CF00F0512
:1005000091F803C00CF0100CBCF1000F03D091F86F
:1005100002C04CEA050591F800C0BCF1000F31D0D3
:10052000146800202BE04FF0010C0CFA00F3B1F836
:1005300000C00CEA03069E4220D183004FF00F0C4E
:100540000CFA03F7BC4305FA03FC4CEA040491F8E7
:1005500003C0BCF1280F06D14FF0010C0CFA00FCCF
:10056000C2F814C00AE091F803C0BCF1480F05D1ED
:100570004FF0010C0CFA00FCC2F810C0401C082817
:10058000D1D31460B1F800C0BCF1FF0F34DD546862
:1005900000202EE000F1080C4FF0010808FA0CF3DF
:1005A000B1F800C00CEA03069E4221D183004FF04F
:1005B0000F0C0CFA03F7BC4305FA03FC4CEA0404E5
:1005C00091F803C0BCF1280F05D100F1080C08FA1E
:1005D0000CF8C2F8148091F803C0BCF1480F07D1A1
:1005E00000F1080C4FF0010808FA0CF8C2F810806E
:1005F000401C0828CED35460BDE8F081024600209C
:10060000D3680B400BB1012000E00020704741612E
:100610007047016170470AB1016100E041617047B4
:1006200070B50446002500260CE000F0A9FD012865
:1006300007D100F09FFDA055761C0025002004493D
:1006400008706D1C42F210708542EED370BD000040
:100650002800002010B500F0A1FD10BD00BFFEE78E
:1006600008B50121042000F009FD48208DF80300A1
:100670004FF4C050ADF8000003208DF80200694629
:100680000148FFF730FF08BD000801400EB5012109
:10069000042000F0F3FC0121082000F0EFFC1820FA
:1006A0008DF80B000F20ADF8080003208DF80A002C
:1006B00002A91448FFF717FF10208DF80700C002A9
:1006C000ADF8040003208DF8060001A90E48FFF7DD
:1006D0000AFF4FF400410C48FFF79BFF10208DF8F4
:1006E00003000001ADF8000003208DF80200694608
:1006F0000448FFF7F8FE4FF480710248FFF789FFC6
:100700000EBD000000080140000C014000BFFEE7E4
:1007100008B50121042000F0B1FC0121082000F0FF
:10072000ADFC10208DF80300F020ADF80000032090
:100730008DF8020069460A48FFF7D5FE10208DF8B3
:10074000030046F20300ADF8000003208DF802001C
:1007500069460448FFF7C7FE00F039FC08BD0000F9
:1007600000080140000C014010B50446002C0DDBD0
:1007700010210E48FFF74DFF20210C48FFF747FFDF
:10078000A1B24FF0804000F063FF0DE02021074848
:10079000FFF73FFF10210548FFF739FF604281B2A4
:1007A0004FF0804000F054FF10BD000000080140F1
:1007B00010B50446002C0DDB80210E48FFF729FF01
:1007C00040210C48FFF723FFA1B24FF0804000F01A
:1007D00041FF0DE040210748FFF71BFF802105483E
:1007E000FFF715FF604281B24FF0804000F032FF0A
:1007F00010BD00000008014010B50446002C0DDBC0
:1008000002210E48FFF705FF01210C48FFF7FFFE0C
:10081000A1B24FF0804000F01FFF0DE0012107481A
:10082000FFF7F7FE02210548FFF7F1FE604281B2B3
:100830004FF0804000F010FF10BD0000000C0140A0
:1008400010B50446002C0FDB4FF400510F48FFF7A2
:10085000E0FE4FF480410D48FFF7D9FEA1B24FF002
:10086000804000F0FBFE0FE04FF480410748FFF7A7
:10087000D0FE4FF400510548FFF7C9FE604281B237
:100880004FF0804000F0EAFE10BD0000000C014077
:1008900010B50446604240B2FFF766FF604240B2C6
:1008A000FFF786FF604240B2FFF7A6FF604240B20A
:1008B000FFF7C6FF10BD10B5044660B2FFF754FF46
:1008C00060B2FFF775FF60B2FFF796FF60B2FFF707
:1008D000B7FF10BD10B50446604240B2FFF744FFB9
:1008E00060B2FFF765FF604240B2FFF785FF60B27C
:1008F000FFF7A6FF10BD10B50446604240B2FFF7F7
:1009000033FF60B2FFF754FF60B2FFF775FF60423C
:1009100040B2FFF795FF10BD10B50020FFF724FF90
:100920000020FFF745FF0020FFF766FF0020FFF7DC
:1009300087FF10BD10B5044660B2FFF715FF604297
:1009400040B2FFF735FF60B2FFF756FF604240B29A
:10095000FFF776FF10BD10B5044660B2FFF704FF45
:10096000604240B2FFF724FF604240B2FFF744FF0D
:1009700060B2FFF765FF10BD7047000070B5002141
:1009800000230F22C47804B3154C246804F4E064F7
:10099000C4F5E064210AC1F10403CA40447804FAB2
:1009A00003F184781440214309010E4C0678A155C7
:1009B000047804F01F050124AC4005786D11AD00EA
:1009C00005F1E025C5F8004109E0047804F01F05B1
:1009D0000124AC40044D0678761145F8264070BDE0
:1009E0000CED00E000E400E080E100E0024901439A
:1009F000024A1160704700000000FA050CED00E0AB
:100A000000200CE0002106E00022064B03EBC0139F
:100A10005A544A1CD1B28029F6DB421CD0B20828B5
:100A2000F0DB7047000100202DE9F04304460D463D
:100A300016461F467F2C01DDBDE8F0833F2D00DD0B
:100A4000FAE7A119802902DDC4F18001CEB2E919CB
:100A5000402902DDC5F14001CFB2284630E02346EF
:100A600029E04FEAE07C00EB5C7C4FEAEC0CDFF81D
:100A70005C8008EBCC1C1CF803C002464FEAE0780F
:100A800000EB58784FEAE808A0EBC8094FF00108DE
:100A900008FA09F82CEA080C01464FEAE07800EB66
:100AA00058784FEAE808DFF8249009EBC81808F8EE
:100AB00003C0591CCBB2A1199942D2DC411CC8B267
:100AC000E9198142CBDC00BFB6E70000000100203D
:100AD00038B5002406E0002500E06D1CB5F57A7FEE
:100AE000FBD3641CB4F57A7FF5D30121082000F014
:100AF000C5FA14208DF8030003208DF802004FF48E
:100B00008070ADF8000069460848FFF7ECFC4FF430
:100B10000070ADF8000069460448FFF7E4FC0120CE
:100B200000F016FA012000F01FFA38BD000C014059
:100B300070B50546002411E080212141294009B10A
:100B4000012100E00021084600F00EFA012000F02B
:100B5000FFF9002000F0FCF9601CC4B2082CEBDBAC
:100B6000012000F0F5F9002000F0F2F970BD10B599
:100B7000012000F0F9F9012000F0EAF9002000F06E
:100B8000F3F9002000F0E4F910BD10B5002000F0EA
:100B9000EBF9012000F0DCF9012000F0E5F910BDCF
:100BA00010B5FFF795FFAE2000F0EAF9D52000F070
:100BB000E7F9802000F0E4F9A82000F0E1F93F20F7
:100BC00000F0DEF9D32000F0DBF9002000F0D8F9C6
:100BD000402000F0D5F9A12000F0D2F9C82000F0A3
:100BE000CFF9DA2000F0CCF9122000F0C9F9812009
:100BF00000F0C6F9CF2000F0C3F9D92000F0C0F909
:100C0000F12000F0BDF9DB2000F0BAF9302000F04F
:100C1000B7F9A42000F0B4F9A62000F0B1F98D20B6
:100C200000F0AEF9142000F0ABF9AF2000F0A8F905
:100C3000FFF7E6FE00F078F910BD10B5024601207E
:100C400000E050430B1EA1F10101FAD110BD70B5B7
:100C500005460C4645F0B00000F092F9102141EA3B
:100C6000141000F08DF904F00F0000F089F970BD48
:100C7000F8B506460F4614461D46082D0CD1A4F1C2
:100C800020000E4901EB0010102308223946009085
:100C9000304600F063F80FE0062D0DD1A4F12000DE
:100CA00000EB4000064901EB4000082306223946CC
:100CB0000090304600F052F8F8BD0000A01B00087C
:100CC000902100082DE9FC478046894616460027FA
:100CD00000200190002538E0705D01A9C855781CFE
:100CE000C7B2032F2FDB002700240BE004EBC40165
:100CF000184A02EB810001A9FFF7F2FA00B90BE0F4
:100D0000601CC4B204EBC401124A02EB810012A1C0
:100D1000FFF7E6FA0028E9D100BF681C032190FB29
:100D2000F1F0401E08EB001000F0FF0A04EBC400D5
:100D3000084901EB8000001D10231A464946009027
:100D4000504600F00BF8681CC5B2705D0028C3D196
:100D5000BDE8FC87CA230008000000002DE9F04729
:100D600007460C4690469946DDF820A07F2F01DD0E
:100D7000BDE8F0873F2C00DDFAE74B4642462146AE
:100D80003846FFF751FE002570E0002669E0B819EB
:100D90007F2800DD67E0E11704EB517105EBE1010D
:100DA000072900DDE4E72046E21704EB527205EB69
:100DB000E202344B03EBC212BB19D25C2146E317AB
:100DC00004EB5373DB10A4EBC30305FB086C1AF8A8
:100DD0000CC00CFA03FC42EA0C02E31704EB537359
:100DE00005EBE303DFF89CC00CEBC31307EB060C29
:100DF00003F80C20E11704EB517105EBE101491CEC
:100E0000072900DD2BE02046E21704EB527205EBC8
:100E1000E202521C1B4B03EBC212BB19D25C2146EF
:100E2000E31704EB5373DB10A4EBC303C3F1080314
:100E300005FB086C1AF80CC04CFA03FC42EA0C02E1
:100E4000E31704EB537305EBE3035B1CDFF834C0DB
:100E50000CEBC31307EB060C03F80C2000BF701C4F
:100E6000C6B2464593DB00BF681CC5B2A9F10100BC
:100E7000C11700EB5171012202EBE101A94284DCB0
:100E800000BF75E7000100202DE9F04F80468A463B
:100E900015461E46DDF82490002D07DB4B462B221D
:100EA00051464046FFF7E4FE2F4606E04B462D2212
:100EB00051464046FFF7DCFE6F42002418E0301B2D
:100EC000411E0A20FFF7B9FEB7FBF0F00A21B0FB84
:100ED000F1F201FB120000F1300B611C01FB0981F2
:100EE000C8B24B465A465146FFF7C2FE601CC4B218
:100EF000B442E4DBBDE8F08F2DE9F04106468846B8
:100F000015461F46002409E02A5D04FB0761C8B2AC
:100F10003B464146FFF7ACFE601CC4B2285D00288A
:100F2000F2D1BDE8F081000010B500240BE00021F3
:100F30002046FFF78CFE054901EBC410802100F02C
:100F40002FF8601CC4B2082CF1DB10BD000100209A
:100F500010B5044622464FF480710248FFF75BFB50
:100F600010BD0000000C014010B5044622464FF4AD
:100F700000710248FFF74FFB10BD0000000C01405C
:100F800010B50446FFF7F3FD7820FFF7D1FD0020F0
:100F9000FFF7CEFD2046FFF7CBFDFFF7F6FD10BDB6
:100FA00070B505460E46FFF7E2FD7820FFF7C0FD5D
:100FB0004020FFF7BDFD002404E0285DFFF7B8FDE9
:100FC000601CC4B2B442F8DBFFF7DFFD70BD00B5B2
:100FD00087B00121084600F041F84FF0804000F052
:100FE000FBF90020ADF81600ADF812006320ADF853
:100FF00014002320ADF8100000208DF8180004A97B
:101000004FF0804000F02EFB684600F017FB602098
:10101000ADF800000020ADF808000120ADF8020096
:101020000020ADF8060069464FF0804000F0DAF984
:1010300069464FF0804000F021FA69464FF0804049
:1010400000F06EFA69464FF0804000F0B9FA0121D5
:10105000880700F0B5F907B000BD704729B1064A0E
:10106000D2690243044BDA6104E0034AD269824345
:10107000014BDA61704700000010024029B1064AB6
:1010800092690243044B9A6104E0034A92698243E5
:10109000014B9A61704700000010024030B50021FA
:1010A0000022002400232D4D6D6805F00C0121B1B4
:1010B000042905D0082923D105E0294D056022E047
:1010C000274D05601FE0254D6D6805F47012234D16
:1010D0006D6805F48034022505EB92421CB9214D60
:1010E000554305600BE01D4D6D6805F400351DB1DD
:1010F0001C4D5543056002E0194D5543056002E063
:10110000174D056000BF00BF144D6D6805F0F0017C
:101110000909154D6B5C0568DD4045600F4D6D6834
:1011200005F4E061090A104D6B5C4568DD4085609F
:101130000A4D6D6805F46051C90A0B4D6B5C45683A
:10114000DD40C560054D6D6805F44041890B074DD4
:101150006B5CC568B5FBF3F5056130BD001002405E
:1011600000127A0000093D000E0000201E00002041
:101170007047000001480078704700000000002020
:1011800005480078012804D1002003490870012097
:1011900070470020FCE700000100002000B587B088
:1011A00001218803FFF76AFF01210420FFF766FF92
:1011B00018208DF81B004FF40070ADF818000320C4
:1011C0008DF81A0006A92148FFF78DF948208DF8FF
:1011D0001B004FF48060ADF8180003208DF81A0052
:1011E00006A91A48FFF77FF94FF4E130029000207A
:1011F000ADF814000C20ADF812000020ADF810007E
:10120000ADF80E00ADF80C0002A9114800F060FB2B
:10121000012240F225510E4800F034FB4FF4A0604B
:10122000FFF7E4FB25208DF8040001208DF807006E
:101230008DF805008DF8060001A8FFF79FFB01213E
:10124000034800F0DCFA07B000BD000000080140D0
:101250000038014010B504462146054800F0A9FBBE
:1012600000BF8021024800F0D6FA0028F9D010BD56
:101270000038014010B500F001F810BD0CB5002099
:10128000019000903348006840F480303149086094
:1012900000BF3048006800F4003000900198401C06
:1012A0000190009818B90198B0F5A06FF1D12948C4
:1012B000006800F4003010B10120009001E000202F
:1012C00000900098012843D12348006840F01000A6
:1012D000214908600846006820F0030008600846BD
:1012E000006840F0020008601A48406819494860E8
:1012F0000846406848600846406840F4806048609E
:101300000846406820F47C1048600846406840F475
:10131000E81048600846006840F08070086000BF30
:101320000C48006800F000700028F9D009484068B7
:1013300020F00300074948600846406840F002007A
:10134000486000BF0348406800F00C000828F9D14D
:101350000CBD000000100240002002407047000059
:1013600010B51348006840F00100114908600846B4
:101370004068104908400E494860084600680E4918
:1013800008400B4908600846006820F48020086087
:101390000846406820F4FE0048604FF41F00886053
:1013A000FFF768FF4FF000600449086010BD0000BF
:1013B000001002400000FFF8FFFFF6FE08ED00E01D
:1013C00021B1028842F00102028004E002884FF657
:1013D000FE731A400280704701894FF6F87211407F
:1013E0000181704770B5002400220023058C4FF660
:1013F000FE7635400584028C8388048B4FF68F750A
:101400002C40B51E2C400D882C43751E2A400D899A
:101410002A434D882A43144DA8420BD0134DA842AD
:1014200008D0134DA84205D0124DA84202D0124D4B
:10143000A84213D14FF6F7752A404D892A434FF63B
:10144000FB752A408D882A434FF6FF652B404FF6E7
:10145000FF552B408D892B43CD892B4383800483FB
:10146000CD888586028470BD002C01400034014087
:1014700000400140004401400048014070B5002494
:1014800000220023058C4FF6EF7635400584028C50
:101490008388048B48F6FF752C404FF6FF452C409F
:1014A0000D884FF6FF7606EA05252C434FF6DF75CB
:1014B0002A400D8906EA05152A434D8806EA0515D6
:1014C0002A43154DA84202D0144DA8421DD14FF613
:1014D0007F752A404D894FF6FF7606EA05152A43A7
:1014E0004FF6BF752A408D8806EA05152A434FF648
:1014F000FF352B404FF2FF752B408D8906EA85059D
:101500002B43CD8906EA85052B4383800483CD8850
:101510000587028470BD0000002C014000340140AA
:1015200070B5002400220023058C4FF6FF6635407D
:101530000584028C8388848B4FF68F752C404FF680
:10154000FC752C400D882C434FF6FF552A400D8921
:101550004FF6FF7606EA05252A434D8806EA05255B
:101560002A43154DA84202D0144DA8421DD14FF276
:10157000FF752A404D894FF6FF7606EA05252A4376
:101580004FF6FF352A408D8806EA05252A434EF698
:10159000FF752B404DF6FF752B408D8906EA05152A
:1015A0002B43CD8906EA05152B4383808483CD88A0
:1015B0008587028470BD0000002C0140003401408A
:1015C00070B5002200230024058C4EF6FF763540CE
:1015D0000584038C8488828B48F6FF752A404FF679
:1015E000FF452A400D884FF6FF7606EA05252A4377
:1015F0004DF6FF752B400D8906EA05352B434D88C6
:1016000006EA05352B430B4DA84202D00A4DA842ED
:1016100008D14BF6FF752C408D894FF6FF7606EA10
:1016200085152C4384808283CD88A0F840500384A4
:1016300070BD0000002C01400034014000210180F9
:1016400041808180C180018141818181C181704758
:10165000818670470187704781877047A0F84010E6
:1016600070470000002202881D4B98420ED01D4B8F
:1016700098420BD0B0F1804F08D01B4B984205D058
:101680001A4B984202D01A4B984204D14FF68F73EE
:101690001A404B881A43174B984207D0164B984272
:1016A00004D04FF6FF431A40CB881A4302808B8840
:1016B00083850B8803850A4B98420BD0094B9842CF
:1016C00008D00E4B984205D00D4B984202D00D4BDE
:1016D000984201D10B7A0386012383827047000070
:1016E000002C01400034014000040040000800408C
:1016F000000C004000100040001400400040014079
:10170000004401400048014010B540F225510B480B
:1017100000F08EF8012810D1084800F045F908497A
:10172000087008460078FFF795FD0120054908700C
:1017300040F22551014800F053F810BD0038014037
:10174000000000200100002010B540F22551204883
:1017500000F06EF8002839D01D4800F025F9C4B219
:10176000242C02D100201B4908801A4801880088D7
:10177000401C184A108018484454007824281ED170
:10178000154800794D281AD113484079432816D1BD
:101790000A2C14D150211148FEF780FD0D48028813
:1017A0000D490E48FEF735FD01200C4981F8500027
:1017B000002008490880C8210748FEF76FFD05484A
:1017C0000088C82802DBC8200249088010BD00003C
:1017D00000480040060000208D0500200005002084
:1017E00010B50022002340F66A14A14200D100BFC8
:1017F0000A1201249440A3B2DC43048010BD21B13D
:10180000828942F40052828104E082894DF6FF739E
:101810001A408281704702460020B1F5007F00D156
:1018200000BF13880B400BB1012000E0002070477F
:1018300070B50246002400230025002040F66A16F9
:10184000B14200D100BFC1F3421501F01F030126D0
:1018500006FA03F3012D02D19689334006E0022DEA
:1018600002D1168A334001E0968A33400C120126D9
:1018700006FA04F41688344013B10CB1012000E0DC
:10188000002070BDF0B5034600240026002500208E
:1018900040F66A17B94200D100BF1846C1F342149E
:1018A00001F01F06012707FA06F5012C01D10C30C3
:1018B00004E0022C01D1103000E014301AB10768A6
:1018C0002F43076002E00768AF430760F0BD0000E8
:1018D0002DE9F04786B005460E460024A24600BF1B
:1018E000A1460027B08900B100BF2F462C8A4CF6D4
:1018F000FF700440F08804432C82AC894EF6F3104C
:101900000440B08831890843718908430443AC819D
:10191000AC8A4FF6FF400440B0890443AC8201A872
:10192000FFF7BCFB1F48874202D1DDF810A001E0A1
:10193000DDF80CA0A88900F4004040B10AEBCA0011
:1019400000EB0A1031684900B0FBF1F807E00AEB40
:10195000CA0000EB0A1031688900B0FBF1F864207E
:10196000B8FBF0F004012009642101FB1089A8896B
:1019700000F4004040B1322000EBC900B0FBF1F0B0
:1019800000F00700044308E0322000EB0910642156
:10199000B0FBF1F000F00F0004432C8106B0BDE86D
:1019A000F08700000038014001468888C0F3080035
:1019B0007047C1F308028280704700BFFEE700BF96
:1019C00070470146087800F0E000C02806D148784A
:1019D00000F0C000802828D101207047087800F06E
:1019E000F000E0280BD1487800F0C00080281CD11E
:1019F000887800F0C000802817D10120EDE7087832
:101A000000F0F800F02810D1487800F0C0008028DD
:101A10000BD1887800F0C000802806D1C87800F08B
:101A2000C000802801D10120D7E70020D5E70000C1
:101A300008B5FFF7B5F8FEF729FEFEF70BFEFEF737
:101A400067FEFEF70DFEFEF71DFD00244AA20021F1
:101A50000846FFF737F9FFF767FA8BE04848FEF7CB
:101A6000DFFDFEF7CDFF082346A200210846FFF761
:101A700043FA082345A210210020FFF73DFA46480B
:101A80000078002876D13E480078002850D03C48A5
:101A90000078412805D104F10A0044B2642C00DD2D
:101AA000642437480078422807D1A4F10A0044B2E0
:101AB00014F1640F01DA6FF06304314800784928AB
:101AC00002D1FEF729FF00242D480078452801D1D6
:101AD000FEF7F2FC2A480078432802D12046FEF7A0
:101AE00029FF27480078462802D12046FEF7F2FE5B
:101AF00023480078472802D12046FEF7DCFE204824
:101B000000784B2802D12046FEF7C2FE1C48007820
:101B1000482802D12046FEF7EEFE194800784A28F0
:101B200002D12046FEF717FF15491C48FEF74DFB72
:101B30001A48FFF746FF012805D1184A2021002046
:101B4000FFF7C0F805E00823144A20210020FFF722
:101B5000D3F9082003232246002100903020FFF70C
:101B600093F964210648FEF799FBFFF7DDF90120A0
:101B70000949087072E70000E4BDA0E5A5BD0000BA
:101B80002900002053706565643A00005265636562
:101B90006976653A00000000280000208D000020D2
:101BA0000000000000000000000000000000000035
:101BB000000000F8000000000000003330000000CA
:101BC00000160E00160E00000000000000000000CD
:101BD00040C07840C0784000043F04043F04040043
:101BE000007088FC08300000001820FF211E000053
:101BF000F008F000E018000000211C031E211E0068
:101C000000F00888700000001E21232419272110ED
:101C1000000000160E0000000000000000000000A0
:101C2000000000E018040200000000071820400037
:101C300000020418E0000000004020180700000027
:101C4000404080F0804040000202010F010202008B
:101C5000000000F0000000000101011F010101006F
:101C6000000000000000000000B070000000000054
:101C7000000000000000000000010101010101015D
:101C800000000000000000000030300000000000F4
:101C900000000000806018040060180601000000C9
:101CA00000E010080810E000000F102020100F00C6
:101CB000001010F8000000000020203F202000004D
:101CC00000700808088870000030282422213000A5
:101CD00000300888884830000018202020110E00AD
:101CE0000000C02010F8000000070424243F240056
:101CF00000F80888880808000019212020110E002B
:101D000000E0108888180000000F112020110E003C
:101D100000380808C83808000000003F0000000034
:101D20000070880808887000001C222121221C00F5
:101D300000E010080810E0000000312222110F001E
:101D4000000000C0C00000000000003030000000B3
:101D5000000000C0C0000000000080B07000000063
:101D6000000080402010080000010204081020003C
:101D70004040404040404000040404040404040087
:101D8000000810204080000000201008040201001C
:101D9000007048080808F00000000030360100001C
:101DA000C030C828E810E0000718272423140B00CF
:101DB0000000C038E0000000203C23020227382049
:101DC00008F8888888700000203F202020110E002D
:101DD000C030080808083800071820202010080024
:101DE00008F808080810E000203F202020100F000D
:101DF00008F88888E8081000203F202023201800D9
:101E000008F88888E8081000203F20000300000040
:101E1000C03008080838000007182020221E0200E1
:101E200008F808000008F808203F210101213F20A0
:101E3000000808F8080800000020203F20200000CB
:101E400000000808F8080800C08080807F000000BB
:101E500008F888C028180800203F200126382000F4
:101E600008F8080000000000203F2020202030005B
:101E700008F8F800F8F80800203F003F003F200075
:101E800008F830C00008F808203F200007183F007D
:101E9000E01008080810E0000F10202020100F00AC
:101EA00008F808080808F000203F2101010100009F
:101EB000E01008080810E0000F18242438504F00E4
:101EC00008F8888888887000203F2000030C3020A4
:101ED00000708808080838000038202121221C00E2
:101EE000180808F8080818000000203F200000002B
:101EF00008F808000008F808001F202020201F0014
:101F00000878880000C83808000007380E01000073
:101F1000F80800F80008F800033C0700073C03003D
:101F2000081868808068180820302C03032C3020A3
:101F30000838C800C83808000000203F2000000012
:101F400010080808C838080020382621202018006A
:101F5000000000FE020202000000007F404040003E
:101F6000000C30C000000000000000010638C00076
:101F700000020202FE000000004040407F0000001E
:101F800000201008040810200000000000000000DD
:101F90000000000000000000808080808080808041
:101FA0000002040800000000000000000000000023
:101FB00000008080808000000019242222223F201F
:101FC00008F8008080000000003F112020110E0062
:101FD0000000008080800000000E112020201100F1
:101FE000000000808088F800000E112020103F20A3
:101FF0000000808080800000001F22222222130027
:10200000008080F0888888180020203F2020000071
:102010000000808080808000006B94949493600026
:1020200008F8008080800000203F210000203F2031
:1020300000809898000000000020203F2020000031
:10204000000000809898000000C08080807F000021
:1020500008F8000080808000203F24022D302000FE
:10206000000808F8000000000020203F20200000A9
:102070008080808080808000203F20003F20003FC3
:10208000008080008080000000203F2100203F2051
:102090000000808080800000001F202020201F0082
:1020A000808000808000000080FFA12020110E00B1
:1020B0000000008080808000000E112020A0FF80A2
:1020C000808080008080800020203F21200001004F
:1020D00000008080808080000033242424241900A4
:1020E000008080E0808000000000001F20200000B1
:1020F0008080000000808000001F202020103F20F2
:10210000808080000080808000010E300806010081
:1021100080800080008080800F300C030C300F0026
:1021200000808000808080000020312E0E31200051
:10213000808080000080808080818E701806010081
:1021400000808080808080000021302C222130009F
:1021500000000000807C020200000000003F4040C0
:1021600000000000FF00000000000000FF00000071
:102170000002027C800000000040403F00000000A0
:10218000008040408000008000000000000101004D
:102190000000000000000000002F00000000070009
:1021A000070000147F147F1400242A7F2A120023C2
:1021B00013086462003649552250000000070000F1
:1021C00000001C224100000041221C000014083EB7
:1021D00008140008083E0808000000A0600000087D
:1021E00008080808000060600000002010080402D1
:1021F000003E5149453E0000427F4000004261518F
:102200004946002141454B31001814127F10002728
:1022100045454539003C4A494930000171090503EB
:1022200000364949493600064949291E000036361C
:10223000000000005636000000081422410000147F
:10224000141414140000412214080002015109065C
:10225000003E4955592E007C1211127C007F4949DD
:102260004936003E41414122007F4141221C007F0E
:1022700049494941007F09090901003E4149497A1C
:10228000007F0808087F0000417F41000020404196
:102290003F01007F08142241007F40404040007F02
:1022A000020C027F007F0408107F003E4141413E46
:1022B000007F09090906003E4151215E007F09198E
:1022C00029460046494949310001017F0101003F8B
:1022D0004040403F001F2040201F003F4038403F0B
:1022E000006314081463000708700807006151496F
:1022F000454300007F414100000204081020000017
:1023000041417F000004020102040040404040407F
:10231000000001020400002054545478007F484417
:10232000443800384444442000384444487F00384E
:102330005454541800087E0901020018A4A4A47C77
:10234000007F080404780000447D40000040808441
:102350007D00007F102844000000417F4000007C89
:1023600004180478007C0804047800384444443895
:1023700000FC242424180018242418FC007C0804E1
:10238000040800485454542000043F444020003CBA
:102390004040207C001C2040201C003C4030403C41
:1023A000004428102844001CA0A0A07C00446454D1
:1023B0004C440000087F41000000007F0000000046
:1023C000417F0800000804081008EFBC8C000000E2
:1023D00000000000000000000000000000000000FD
:1023E0005838000000000000000000000000E380FA
:1023F000820000000000000000000000000000005B
:102400000000000018242418000000000000000054
:102410000000E4BDA000008060F8074020180F080D
:10242000C80808281800010000FF00100C034080B5
:102430007F0001061800E5A5BD001010F01F10F088
:1024400000808282E2928A8680004022150816610E
:10245000000040807F0000000000E4B896002020CB
:1024600020FE2020FF202020FF2020202000000030
:10247000007F404047444444474040400000E795C7
:102480008C00000000FE929292FE929292FE00005A
:10249000000008080484621E010001FE0204040812
:1024A0000800E4BDA00000008040F00C804030CC6B
:1024B000A02060200000000100003F000C0220600E
:1024C0003F00040C0000E5B9B20000008080808865
:1024D00088887884844040400000000000000000AC
:1024E000007F0000000000000000E5989B0000E075
:1024F00020E020E01050B21688E88840000000007C
:1025000021181609057F0C05027F06080800E593CF
:10251000880000E020A0F020C0300C1420C0800013
:102520000000000001040201384929253D0C010189
:102530000100E4BB8A00000000808040A0B0604041
:10254000C080808080000001010506060425151C5E
:102550000E0401030100E697A50000000000E02042
:1025600020202020E0E000000000000000001F13F9
:10257000111111111F0000000000E6ACA2000000C4
:1025800040C040E04080F0F04040C0C00000000883
:102590000407031315180C07020D18181000E59115
:1025A000BC0000C04040C00020E0A0E0F09050001F
:1025B00000000001010203123321311F0F01030249
:1025C0000200E5AD990000202060A0602000C0104E
:1025D000F000C0000000001012131F07091711308F
:1025E0001F0001070604E5A4A700000080C080804A
:1025F00080F0F08080808000000000101818180C17
:1026000006030102060C18381000E59CA300000028
:1026100000002020E0D0E0E0B00000000000000258
:1026200002131515151F1F14151313060200EFBC16
:102630008C0000000000000000000000000000000E
:1026400000000020E060000000000000000000002A
:102650000000E58FAA0000000070E020303030203C
:1026600020F020000000001010180B0D05010105DE
:102670000F1B18301000E7BC98000080C0A09040ED
:102680008080C0F0E0E08080800000181A0B0A1003
:1026900010140D2B3E0605081808E5A696000080CC
:1026A00080C0F0800080A0E0A0B0B08000000011E9
:1026B000131F0C0F1110180702061C383010E99B6D
:1026C000BE000000E020305050F070B0B0A060E0DC
:1026D000000000080904241F172B2A3F1C040808C7
:1026E0000800E58F880000000000F0E0A02020F046
:1026F0007000000000000010101018080C070307FD
:102700000C1C18181800E9878D0000404040C0A03C
:10271000A0E0F0D0D0D040404000000000101F1DCD
:102720001D1B1F15151B10101000E69DA5000000B5
:10273000002020E0A0F0F020A020200000000818D9
:10274000090D0505031F3F03050D19191800E4BD08
:10275000A000008060F8074020180F08C80808286B
:102760001800010000FF00100C0340807F000106EC
:102770001800E698AF000000007F494949494949DF
:10278000497F000000008141211D214181FF89898D
:10279000898989818100E69D8E00808444442414C7
:1027A0000CFF0C14244444848000080808080949DC
:1027B00089790D0B090808080800E794B2000000A9
:1027C000FE22222222FE22222222FE0000000000FF
:1027D0000702020202FF0202020207000000E4B93F
:1027E00099000002020202824222120A060200003E
:1027F00000000000384641404040404040404078A2
:102800000000E5BDA6000000E4242C342526243475
:10281000AC242420000080601F80929252494925F8
:10282000241208000000E5AE8F00104C444444C45C
:1028300075464444444444540C004020100846E18A
:10284000504C43405060C0000000E4BDA000008038
:1028500060F8074020180F08C80808281800010071
:1028600000FF00100C0340807F0001061800E59C6B
:10287000A800080888C8380C0B0808E808080808E9
:102880000800020100FF40414141417F4141414177
:102890004000E5B9B20080808282828282FE82821C
:1028A00082828280800000000000000000FF0000A3
:1028B000000000000000E595A50000FC0404FC20D9
:1028C000102824E3242810202000000F04040F0106
:1028D000F949494F4949F9010000E688910020244F
:1028E0002424FE23222020FF20222CA020000008E8
:1028F00048847F02414020130C142241F800E698DE
:10290000AF000000007F494949494949497F00001B
:1029100000008141211D214181FF898989898981A7
:102920008100E4BB9800008060F8071010101010C0
:1029300010FF10101000010000FF00000001064011
:10294000807F00000000E5AE8700100C24242424C2
:1029500025E62424242424140C000202020202424C
:10296000827F0202020202020200E888AA0080FCC2
:1029700096E584FC0008C8494AC808080000807F22
:10298000024C807F80601F00003F40407800E4BD23
:10299000A000008060F8074020180F08C808082829
:1029A0001800010000FF00100C0340807F000106AA
:1029B0001800E590830000FC0404FC20104C4B48F8
:1029C0004848C8080800000F04040F00304844427B
:1029D000424140407000E4BA860000020202020256
:1029E00002E222120A06020000000000000000407D
:1029F000807F0000000000000000E590A70000FCC0
:102A00000404FC00FE8282FE8282FE000000000FB1
:102A100004040F003F404040404041407800E588BA
:102A20009800082848890E8878080800F80000FFF8
:102A30000000402010090619600000000F40807F50
:102A40000000E5AF8C00100C14D454545556545467
:102A500054D414140C000000FC555555557D5555A3
:102A60005555FC000000E88BB100040404C44F4439
:102A700044F444444FC404040400848444472414AC
:102A80000C070C14244744848400E590AF00000038
:102A900000FC4444444546444444447C00004020F7
:102AA000180700FC44444444444444FC0000E58AC4
:102AB000A8004044C4444444401010FF101010F0DB
:102AC0000000103C131014B840300E014080403F0D
:102AD0000000E5B08F00000000E0000000FF0000F3
:102AE000002040800000080403000040807F0000B8
:102AF000000000010E00E8BDA60000088848281864
:102B00000FE808080808080800000808090909096A
:102B100009FF0909090909080800E782B90000004E
:102B2000C04040407F48484848C8080800008040EE
:102B30003704041464041464040710E00000E781FF
:102B4000AF00807000FF201004040404FC0404049F
:102B50000400806018070830000040807F000000FB
:102B6000000000000000FF01010131090909098985
:102B70007101010101FFFF8080808080809681804B
:102B80008080808080FFFF01818181FD8991A1C1CA
:102B9000FD81818101FFFF808080809F8884828108
:102BA0009F80808080FF0000C82B0008000000206C
:102BB0000001000028010008C82C000800010020C6
:102BC000B80B0000440100080000000000000000F5
:102BD00000000000000000000000010203040102E8
:102BE00003040607080902040608000000000000AC
:102BF000014E6F6E65000000000000000000000044
:102C000000000000000000000000000000000000C4
:102C100000000000000000000000000000000000B4
:102C200000000000000000000000000000000000A4
:102C30000000000000000000000000000000000094
:102C40000000000000000000000000000000000084
:102C500000000000004E6F6E6500000000000000E4
:102C60000000000000000000000000000000000064
:102C70000000000000000000000000000000000054
:102C80000000000000000000000000000000000044
:102C90000000000000000000000000000000000034
:102CA0000000000000000000000000000000000024
:102CB0000000000000000000000000000000000014
:082CC00000000000000000000C
:04000005080000ED02
:00000001FF
